:020000040800F2
:1000000068100000080004510800028908000295E9
:100010000800029B080002A1080002A700000000DF
:10002000000000000000000000000000080002AD19
:10003000080002B900000000080002C5080002D153
:10004000080004950800049508000495080004952C
:10005000080004950800049508000495080004951C
:10006000080004950800049508000495080004950C
:1000700008000495080004950800049508000495FC
:1000800008000495080004950800049508000495EC
:1000900008000495080004950800049508000495DC
:1000A00008000495080004950800049508000495CC
:1000B00008000495080004950800049508000495BC
:1000C00008000495080004950800049508000495AC
:1000D000080004950800049508000495080004959C
:1000E000080004950800049508000495080004958C
:1000F000080004950800049508000495080004957C
:10010000080004950800049508000495080004956B
:10011000080004950800049508000495080004955B
:10012000080004950800049508000495080004954B
:1001300000000000000000000000000000000000BF
:1001400000000000000000000000000000000000AF
:10015000000000000000000000000000000000009F
:10016000000000000000000000000000000000008F
:10017000000000000000000000000000000000007F
:10018000000000000000000000000000000000006F
:10019000000000000000000000000000000000005F
:1001A000000000000000000000000000000000004F
:1001B000000000000000000000000000000000003F
:1001C000000000000000000000000000000000002F
:1001D000000000000000000000000000000000001F
:0401E000F1E0F85FF3
:1001E40080B485B000AF78600023FB6002E0FB6858
:1001F4000133FB60FA687B689A42F8D300BF143776
:10020400BD4680BC7047000080B582B000AF0121BC
:10021400482000F017FA2023BB801023FB7103232E
:10022400BB713B1D1946144800F033F920211248D4
:1002340000F0EBF92023BB803B1D19460F4800F06A
:1002440028F920210D4800F0E0F920210A4800F0A7
:10025400EAF92021094800F0D8F90948FFF7C0FF5E
:100264002021054800F0D1F92021044800F0DBF9F1
:100274000348FFF7B5FFE8E740010C004001180010
:10028400002DC6C080B400AF00BFBD4680BC70471F
:1002940080B400AFFEE780B400AFFEE780B400AFE7
:1002A400FEE780B400AFFEE780B400AF00BFBD46F8
:1002B40080BC704780B400AF00BFBD4680BC7047AF
:1002C40080B400AF00BFBD4680BC704780B400AFAF
:1002D40000BFBD4680BC704780B500AF154B1B689E
:1002E400144A43F001031360124B5A681149124B2C
:1002F40013404B600F4B1B680E4A23F0847323F4A6
:10030400803313600B4B1B680A4A23F48023136069
:10031400084B5B68074A23F4FE035360054B4FF414
:100324001F029A6000F00CF8044B4FF000629A60D0
:1003340000BF80BD40021000F8FF0000E000ED00A7
:1003440080B500AF00F002F800BF80BD80B483B078
:1003540000AF00237B6000233B603A4B1B68394AA3
:1003640043F480331360374B1B6803F400333B6062
:100374007B6801337B603B68002B03D17B68B3F55A
:10038400A06FF0D12F4B1B6803F40033002B02D075
:1003940001233B6001E000233B603B68012B4BD110
:1003A400294B1B68284A43F010031360264B1B6833
:1003B400254A23F003031360234B1B68224A43F0AE
:1003C400020313601F4B1F4A5B6853601D4B1D4A99
:1003D4005B6853601B4B5B681A4A43F48063536049
:1003E400184B5B68174A23F47C135360154B5B6806
:1003F400144A43F4E8135360124B1B68114A43F048
:100404008073136000BF0F4B1B6803F00073002B55
:10041400F9D00C4B5B680B4A23F003035360094B80
:100424005B68084A43F00203536000BF054B5B68F6
:1004340003F00C03082BF9D100BF0C37BD4680BC78
:10044400704700BF4002100040022000002103E07A
:100454000A4B5B584350043109480A4B42189A42EC
:10046400F6D3094A02E0002342F8043B074B9A42C0
:10047400F9D3FFF731FFFFF7C7FE70470800068482
:1004840068000000680000006800000068000000C8
:10049400FEE780B489B000AF786039600023FB6167
:1004A40000233B610023BB610023FB6000237B61CD
:1004B4000023BB603B68DB7803F00F03FB613B6800
:1004C400DB7803F01003002B05D03B689B781A46B9
:1004D400FB691343FB613B681B88DBB2002B44D0F0
:1004E4007B681B687B610023BB6138E00122BB6928
:1004F40002FA03F3FB603B681B881A46FB6813404F
:100504003B613A69FB689A4226D1BB699B00FB6058
:100514000F22FB6802FA03F3BB60BB68DB437A6912
:1005240013407B61FA69FB6802FA03F37A691343A7
:100534007B613B68DB78282B05D10122BB699A409B
:100544007B685A6108E03B68DB78482B04D10122C0
:10055400BB699A407B681A61BB690133BB61BB69A3
:10056400072BC3D97B687A691A603B681B88FF2B09
:1005740046D97B685B687B610023BB613AE0BB6959
:100584000833012202FA03F3FB603B681B881A4616
:10059400FB6813403B613A69FB689A4227D1BB6907
:1005A4009B00FB600F22FB6802FA03F3BB60BB688D
:1005B400DB437A6913407B61FA69FB6802FA03F34F
:1005C4007A6913437B613B68DB78282B05D1BB69CF
:1005D400083301229A407B685A613B68DB78482BD8
:1005E40005D1BB69083301229A407B681A61BB6953
:1005F4000133BB61BB69072BC1D97B687A695A6037
:1006040000BF2437BD4680BC704780B483B000AFC0
:1006140078600B467B807A887B681A6100BF0C3750
:10062400BD4680BC704780B483B000AF78600B4691
:100634007B807A887B685A6100BF0C37BD4680BCDA
:100644007047000080B483B000AF78600B46FB7045
:10065400FB78002B06D0094B9A6908497B68134341
:100664008B6106E0054B9A697B68DB4303491340C1
:100674008B6100BF0C37BD4680BC70474002100040
:04000005080001E40A
:00000001FF
